{
  "contractName": "Campaign",
  "abi": [
    {
      "anonymous": false,
      "inputs": [
        {
          "indexed": false,
          "internalType": "address",
          "name": "contractAddress",
          "type": "address"
        },
        {
          "indexed": false,
          "internalType": "address payable",
          "name": "projectStarter",
          "type": "address"
        },
        {
          "indexed": false,
          "internalType": "string",
          "name": "contractName",
          "type": "string"
        },
        {
          "indexed": false,
          "internalType": "uint256",
          "name": "targetAmountEth",
          "type": "uint256"
        },
        {
          "indexed": false,
          "internalType": "uint256",
          "name": "durationInMin",
          "type": "uint256"
        }
      ],
      "name": "CampaignStarted",
      "type": "event"
    },
    {
      "constant": true,
      "inputs": [],
      "name": "beneficiary",
      "outputs": [
        {
          "internalType": "address payable",
          "name": "",
          "type": "address"
        }
      ],
      "payable": false,
      "stateMutability": "view",
      "type": "function"
    },
    {
      "constant": true,
      "inputs": [],
      "name": "fundingDeadline",
      "outputs": [
        {
          "internalType": "uint256",
          "name": "",
          "type": "uint256"
        }
      ],
      "payable": false,
      "stateMutability": "view",
      "type": "function"
    },
    {
      "constant": true,
      "inputs": [],
      "name": "name",
      "outputs": [
        {
          "internalType": "string",
          "name": "",
          "type": "string"
        }
      ],
      "payable": false,
      "stateMutability": "view",
      "type": "function"
    },
    {
      "constant": true,
      "inputs": [],
      "name": "owner",
      "outputs": [
        {
          "internalType": "address",
          "name": "",
          "type": "address"
        }
      ],
      "payable": false,
      "stateMutability": "view",
      "type": "function"
    },
    {
      "constant": true,
      "inputs": [],
      "name": "state",
      "outputs": [
        {
          "internalType": "enum Campaign.State",
          "name": "",
          "type": "uint8"
        }
      ],
      "payable": false,
      "stateMutability": "view",
      "type": "function"
    },
    {
      "constant": true,
      "inputs": [],
      "name": "targetAmount",
      "outputs": [
        {
          "internalType": "uint256",
          "name": "",
          "type": "uint256"
        }
      ],
      "payable": false,
      "stateMutability": "view",
      "type": "function"
    },
    {
      "constant": false,
      "inputs": [
        {
          "internalType": "string",
          "name": "contractName",
          "type": "string"
        },
        {
          "internalType": "uint256",
          "name": "targetAmountEth",
          "type": "uint256"
        },
        {
          "internalType": "uint256",
          "name": "durationInMin",
          "type": "uint256"
        },
        {
          "internalType": "address payable",
          "name": "beneficiaryAddress",
          "type": "address"
        }
      ],
      "name": "createCampaign",
      "outputs": [],
      "payable": true,
      "stateMutability": "payable",
      "type": "function"
    },
    {
      "constant": true,
      "inputs": [],
      "name": "returnAllCampaigns",
      "outputs": [
        {
          "internalType": "contract CrowdFundingWithDeadline[]",
          "name": "",
          "type": "address[]"
        }
      ],
      "payable": false,
      "stateMutability": "view",
      "type": "function"
    }
  ],
  "bytecode": "0x608060405234801561001057600080fd5b506123cd806100206000396000f3fe608060405260043610620000865760003560e01c8063796b23bb1162000055578063796b23bb146200029f5780638da5cb5b14620002cd578063953b8fb81462000327578063c19d93fb14620003555762000086565b806306fdde03146200008b5780631c47c6f5146200012157806338af3eed14620001925780635d28084014620001ec575b600080fd5b3480156200009857600080fd5b50620000a362000392565b6040518080602001828103825283818151815260200191508051906020019080838360005b83811015620000e5578082015181840152602081019050620000c8565b50505050905090810190601f168015620001135780820380516001836020036101000a031916815260200191505b509250505060405180910390f35b3480156200012e57600080fd5b506200013962000434565b6040518080602001828103825283818151815260200191508051906020019060200280838360005b838110156200017e57808201518184015260208101905062000161565b505050509050019250505060405180910390f35b3480156200019f57600080fd5b50620001aa620004c4565b604051808273ffffffffffffffffffffffffffffffffffffffff1673ffffffffffffffffffffffffffffffffffffffff16815260200191505060405180910390f35b6200029d600480360360808110156200020457600080fd5b81019080803590602001906401000000008111156200022257600080fd5b8201836020820111156200023557600080fd5b803590602001918460018302840111640100000000831117156200025857600080fd5b90919293919293908035906020019092919080359060200190929190803573ffffffffffffffffffffffffffffffffffffffff169060200190929190505050620004ea565b005b348015620002ac57600080fd5b50620002b7620009e4565b6040518082815260200191505060405180910390f35b348015620002da57600080fd5b50620002e5620009ea565b604051808273ffffffffffffffffffffffffffffffffffffffff1673ffffffffffffffffffffffffffffffffffffffff16815260200191505060405180910390f35b3480156200033457600080fd5b506200033f62000a10565b6040518082815260200191505060405180910390f35b3480156200036257600080fd5b506200036d62000a16565b604051808260038111156200037e57fe5b60ff16815260200191505060405180910390f35b60008054600181600116156101000203166002900480601f0160208091040260200160405190810160405280929190818152602001828054600181600116156101000203166002900480156200042c5780601f1062000400576101008083540402835291602001916200042c565b820191906000526020600020905b8154815290600101906020018083116200040e57829003601f168201915b505050505081565b60606005805480602002602001604051908101604052809291908181526020018280548015620004ba57602002820191906000526020600020905b8160009054906101000a900473ffffffffffffffffffffffffffffffffffffffff1673ffffffffffffffffffffffffffffffffffffffff16815260200190600101908083116200046f575b5050505050905090565b600360009054906101000a900473ffffffffffffffffffffffffffffffffffffffff1681565b848460009190620004fd92919062000a29565b5073__Utils_________________________________63d8916bb9846040518263ffffffff1660e01b81526004018082815260200191505060206040518083038186803b1580156200054e57600080fd5b505af415801562000563573d6000803e3d6000fd5b505050506040513d60208110156200057a57600080fd5b810190808051906020019092919050505060018190555073__Utils_________________________________63529b380f836040518263ffffffff1660e01b81526004018082815260200191505060206040518083038186803b158015620005e157600080fd5b505af4158015620005f6573d6000803e3d6000fd5b505050506040513d60208110156200060d57600080fd5b8101908080519060200190929190505050420160028190555080600360006101000a81548173ffffffffffffffffffffffffffffffffffffffff021916908373ffffffffffffffffffffffffffffffffffffffff16021790555033600460006101000a81548173ffffffffffffffffffffffffffffffffffffffff021916908373ffffffffffffffffffffffffffffffffffffffff1602179055506000600460146101000a81548160ff02191690836003811115620006c857fe5b0217905550600080600154600254600360009054906101000a900473ffffffffffffffffffffffffffffffffffffffff16604051620007079062000ab0565b80806020018581526020018481526020018373ffffffffffffffffffffffffffffffffffffffff1673ffffffffffffffffffffffffffffffffffffffff168152602001828103825286818154600181600116156101000203166002900481526020019150805460018160011615610100020316600290048015620007cf5780601f10620007a357610100808354040283529160200191620007cf565b820191906000526020600020905b815481529060010190602001808311620007b157829003601f168201915b505095505050505050604051809103906000f080158015620007f5573d6000803e3d6000fd5b50905060058190806001815401808255809150509060018203906000526020600020016000909192909190916101000a81548173ffffffffffffffffffffffffffffffffffffffff021916908373ffffffffffffffffffffffffffffffffffffffff160217905550507fd211974df642198a02a095c480b8840f3de9796cda9e39afc4ede2b83e895057600460009054906101000a900473ffffffffffffffffffffffffffffffffffffffff16600360009054906101000a900473ffffffffffffffffffffffffffffffffffffffff166000600154600254604051808673ffffffffffffffffffffffffffffffffffffffff1673ffffffffffffffffffffffffffffffffffffffff1681526020018573ffffffffffffffffffffffffffffffffffffffff1673ffffffffffffffffffffffffffffffffffffffff16815260200180602001848152602001838152602001828103825285818154600181600116156101000203166002900481526020019150805460018160011615610100020316600290048015620009ca5780601f106200099e57610100808354040283529160200191620009ca565b820191906000526020600020905b815481529060010190602001808311620009ac57829003601f168201915b5050965050505050505060405180910390a1505050505050565b60025481565b600460009054906101000a900473ffffffffffffffffffffffffffffffffffffffff1681565b60015481565b600460149054906101000a900460ff1681565b828054600181600116156101000203166002900490600052602060002090601f016020900481019282601f1062000a6c57803560ff191683800117855562000a9d565b8280016001018555821562000a9d579182015b8281111562000a9c57823582559160200191906001019062000a7f565b5b50905062000aac919062000abe565b5090565b6118b28062000ae783390190565b62000ae391905b8082111562000adf57600081600090555060010162000ac5565b5090565b9056fe60806040523480156200001157600080fd5b50604051620018b2380380620018b2833981810160405260808110156200003757600080fd5b81019080805160405193929190846401000000008211156200005857600080fd5b838201915060208201858111156200006f57600080fd5b82518660018202830111640100000000821117156200008d57600080fd5b8083526020830192505050908051906020019080838360005b83811015620000c3578082015181840152602081019050620000a6565b50505050905090810190601f168015620000f15780820380516001836020036101000a031916815260200191505b5060405260200180519060200190929190805190602001909291908051906020019092919050505083600090805190602001906200013192919062000296565b508260018190555073__Utils_________________________________63529b380f836040518263ffffffff1660e01b81526004018082815260200191505060206040518083038186803b1580156200018957600080fd5b505af41580156200019e573d6000803e3d6000fd5b505050506040513d6020811015620001b557600080fd5b8101908080519060200190929190505050620001d66200028e60201b60201c565b0160028190555080600360006101000a81548173ffffffffffffffffffffffffffffffffffffffff021916908373ffffffffffffffffffffffffffffffffffffffff16021790555033600460006101000a81548173ffffffffffffffffffffffffffffffffffffffff021916908373ffffffffffffffffffffffffffffffffffffffff1602179055506000600460146101000a81548160ff021916908360038111156200027f57fe5b02179055505050505062000345565b600042905090565b828054600181600116156101000203166002900490600052602060002090601f016020900481019282601f10620002d957805160ff19168380011785556200030a565b828001600101855582156200030a579182015b8281111562000309578251825591602001919060010190620002ec565b5b5090506200031991906200031d565b5090565b6200034291905b808211156200033e57600081600090555060010162000324565b5090565b90565b61155d80620003556000396000f3fe60806040526004361061014b5760003560e01c80639e1128c6116100b6578063dfd427a11161006f578063dfd427a114610600578063e29eb83614610669578063e522538114610694578063ec4cd0cf146106ab578063f251fc8c146106da578063fbe5d87e146107055761014b565b80639e1128c6146104535780639f5557981461046a578063af157c19146104e5578063b9a6fea014610551578063c19d93fb146105bd578063d7bb99ba146105f65761014b565b806368bc00411161010857806368bc004114610319578063796b23bb1461034857806384bcefd41461037357806387351813146103a25780638da5cb5b146103d1578063953b8fb8146104285761014b565b806306fdde0314610150578063083dca11146101e057806338af3eed146101f75780633ccfd60b1461024e57806355a3b2c1146102655780635b3ed4a5146102ca575b600080fd5b34801561015c57600080fd5b50610165610730565b6040518080602001828103825283818151815260200191508051906020019080838360005b838110156101a557808201518184015260208101905061018a565b50505050905090810190601f1680156101d25780820380516001836020036101000a031916815260200191505b509250505060405180910390f35b3480156101ec57600080fd5b506101f56107ce565b005b34801561020357600080fd5b5061020c6109b5565b604051808273ffffffffffffffffffffffffffffffffffffffff1673ffffffffffffffffffffffffffffffffffffffff16815260200191505060405180910390f35b34801561025a57600080fd5b506102636109db565b005b34801561027157600080fd5b506102b46004803603602081101561028857600080fd5b81019080803573ffffffffffffffffffffffffffffffffffffffff169060200190929190505050610c37565b6040518082815260200191505060405180910390f35b3480156102d657600080fd5b50610303600480360360208110156102ed57600080fd5b8101908080359060200190929190505050610c4f565b6040518082815260200191505060405180910390f35b34801561032557600080fd5b5061032e610c70565b604051808215151515815260200191505060405180910390f35b34801561035457600080fd5b5061035d610c83565b6040518082815260200191505060405180910390f35b34801561037f57600080fd5b50610388610c89565b604051808215151515815260200191505060405180910390f35b3480156103ae57600080fd5b506103b7610c9c565b604051808215151515815260200191505060405180910390f35b3480156103dd57600080fd5b506103e6610cfb565b604051808273ffffffffffffffffffffffffffffffffffffffff1673ffffffffffffffffffffffffffffffffffffffff16815260200191505060405180910390f35b34801561043457600080fd5b5061043d610d21565b6040518082815260200191505060405180910390f35b34801561045f57600080fd5b50610468610d27565b005b34801561047657600080fd5b506104a36004803603602081101561048d57600080fd5b8101908080359060200190929190505050610ecb565b604051808273ffffffffffffffffffffffffffffffffffffffff1673ffffffffffffffffffffffffffffffffffffffff16815260200191505060405180910390f35b3480156104f157600080fd5b506104fa610f07565b6040518080602001828103825283818151815260200191508051906020019060200280838360005b8381101561053d578082015181840152602081019050610522565b505050509050019250505060405180910390f35b34801561055d57600080fd5b50610566610f95565b6040518080602001828103825283818151815260200191508051906020019060200280838360005b838110156105a957808201518184015260208101905061058e565b505050509050019250505060405180910390f35b3480156105c957600080fd5b506105d26110b0565b604051808260038111156105e257fe5b60ff16815260200191505060405180910390f35b6105fe6110c3565b005b34801561060c57600080fd5b5061064f6004803603602081101561062357600080fd5b81019080803573ffffffffffffffffffffffffffffffffffffffff169060200190929190505050611327565b604051808215151515815260200191505060405180910390f35b34801561067557600080fd5b5061067e611347565b6040518082815260200191505060405180910390f35b3480156106a057600080fd5b506106a961134d565b005b3480156106b757600080fd5b506106c0611498565b604051808215151515815260200191505060405180910390f35b3480156106e657600080fd5b506106ef6114c7565b6040518082815260200191505060405180910390f35b34801561071157600080fd5b5061071a6114cd565b6040518082815260200191505060405180910390f35b60008054600181600116156101000203166002900480601f0160208091040260200160405190810160405280929190818152602001828054600181600116156101000203166002900480156107c65780601f1061079b576101008083540402835291602001916107c6565b820191906000526020600020905b8154815290600101906020018083116107a957829003601f168201915b505050505081565b60008060038111156107dc57fe5b600460149054906101000a900460ff1660038111156107f757fe5b1461086a576040517f08c379a000000000000000000000000000000000000000000000000000000000815260040180806020018281038252600d8152602001807f496e76616c69642073746174650000000000000000000000000000000000000081525060200191505060405180910390fd5b610872610c70565b156108c8576040517f08c379a00000000000000000000000000000000000000000000000000000000081526004018080602001828103825260288152602001806115016028913960400191505060405180910390fd5b600760009054906101000a900460ff16610905576001600460146101000a81548160ff021916908360038111156108fb57fe5b021790555061092a565b6002600460146101000a81548160ff0219169083600381111561092457fe5b02179055505b7f6fa7e87ebbd87ed4f1c40bba63144f68fd2bb022fb748ab3b61b5411c39bd47430600854600760009054906101000a900460ff16604051808473ffffffffffffffffffffffffffffffffffffffff1673ffffffffffffffffffffffffffffffffffffffff16815260200183815260200182151515158152602001935050505060405180910390a150565b600360009054906101000a900473ffffffffffffffffffffffffffffffffffffffff1681565b60018060038111156109e957fe5b600460149054906101000a900460ff166003811115610a0457fe5b14610a77576040517f08c379a000000000000000000000000000000000000000000000000000000000815260040180806020018281038252600d8152602001807f496e76616c69642073746174650000000000000000000000000000000000000081525060200191505060405180910390fd5b6000600560003373ffffffffffffffffffffffffffffffffffffffff1673ffffffffffffffffffffffffffffffffffffffff1681526020019081526020016000205411610b2c576040517f08c379a00000000000000000000000000000000000000000000000000000000081526004018080602001828103825260178152602001807f4e6f7468696e672077617320636f6e747269627574656400000000000000000081525060200191505060405180910390fd5b6000600560003373ffffffffffffffffffffffffffffffffffffffff1673ffffffffffffffffffffffffffffffffffffffff1681526020019081526020016000205490506000600560003373ffffffffffffffffffffffffffffffffffffffff1673ffffffffffffffffffffffffffffffffffffffff168152602001908152602001600020819055503373ffffffffffffffffffffffffffffffffffffffff166108fc829081150290604051600060405180830381858888f19350505050610c335780600560003373ffffffffffffffffffffffffffffffffffffffff1673ffffffffffffffffffffffffffffffffffffffff168152602001908152602001600020819055505b5050565b60056020528060005260406000206000915090505481565b600a8181548110610c5c57fe5b906000526020600020016000915090505481565b6000600254610c7d6114d7565b10905090565b60025481565b600760009054906101000a900460ff1681565b6000806003811115610caa57fe5b600460149054906101000a900460ff166003811115610cc557fe5b1480610cf6575060026003811115610cd957fe5b600460149054906101000a900460ff166003811115610cf457fe5b145b905090565b600460009054906101000a900473ffffffffffffffffffffffffffffffffffffffff1681565b60015481565b6000806003811115610d3557fe5b600460149054906101000a900460ff166003811115610d5057fe5b14610dc3576040517f08c379a000000000000000000000000000000000000000000000000000000000815260040180806020018281038252600d8152602001807f496e76616c69642073746174650000000000000000000000000000000000000081525060200191505060405180910390fd5b6001600760006101000a81548160ff021916908315150217905550600760009054906101000a900460ff16610e1b576001600460146101000a81548160ff02191690836003811115610e1157fe5b0217905550610e40565b6002600460146101000a81548160ff02191690836003811115610e3a57fe5b02179055505b7f6fa7e87ebbd87ed4f1c40bba63144f68fd2bb022fb748ab3b61b5411c39bd47430600854600760009054906101000a900460ff16604051808473ffffffffffffffffffffffffffffffffffffffff1673ffffffffffffffffffffffffffffffffffffffff16815260200183815260200182151515158152602001935050505060405180910390a150565b60098181548110610ed857fe5b906000526020600020016000915054906101000a900473ffffffffffffffffffffffffffffffffffffffff1681565b60606009805480602002602001604051908101604052809291908181526020018280548015610f8b57602002820191906000526020600020905b8160009054906101000a900473ffffffffffffffffffffffffffffffffffffffff1673ffffffffffffffffffffffffffffffffffffffff1681526020019060010190808311610f41575b5050505050905090565b606060008090505b60098054905081101561105957600a6005600060098481548110610fbd57fe5b9060005260206000200160009054906101000a900473ffffffffffffffffffffffffffffffffffffffff1673ffffffffffffffffffffffffffffffffffffffff1673ffffffffffffffffffffffffffffffffffffffff1681526020019081526020016000205490806001815401808255809150509060018203906000526020600020016000909192909190915055508080600101915050610f9d565b50600a8054806020026020016040519081016040528092919081815260200182805480156110a657602002820191906000526020600020905b815481526020019060010190808311611092575b5050505050905090565b600460149054906101000a900460ff1681565b60008060038111156110d157fe5b600460149054906101000a900460ff1660038111156110ec57fe5b1461115f576040517f08c379a000000000000000000000000000000000000000000000000000000000815260040180806020018281038252600d8152602001807f496e76616c69642073746174650000000000000000000000000000000000000081525060200191505060405180910390fd5b611167610c70565b6111bc576040517f08c379a00000000000000000000000000000000000000000000000000000000081526004018080602001828103825260218152602001806114e06021913960400191505060405180910390fd5b6000600560003373ffffffffffffffffffffffffffffffffffffffff1673ffffffffffffffffffffffffffffffffffffffff16815260200190815260200160002054141561127c5760093390806001815401808255809150509060018203906000526020600020016000909192909190916101000a81548173ffffffffffffffffffffffffffffffffffffffff021916908373ffffffffffffffffffffffffffffffffffffffff160217905550506001600b600082825401925050819055505b34600560003373ffffffffffffffffffffffffffffffffffffffff1673ffffffffffffffffffffffffffffffffffffffff168152602001908152602001600020600082825401925050819055503460086000828254019250508190555060015460085410611324576001600760006101000a81548160ff0219169083151502179055506002600460146101000a81548160ff0219169083600381111561131e57fe5b02179055505b50565b60066020528060005260406000206000915054906101000a900460ff1681565b60085481565b600280600381111561135b57fe5b600460149054906101000a900460ff16600381111561137657fe5b146113e9576040517f08c379a000000000000000000000000000000000000000000000000000000000815260040180806020018281038252600d8152602001807f496e76616c69642073746174650000000000000000000000000000000000000081525060200191505060405180910390fd5b600360009054906101000a900473ffffffffffffffffffffffffffffffffffffffff1673ffffffffffffffffffffffffffffffffffffffff166108fc6008549081150290604051600060405180830381858888f1935050505015611470576003600460146101000a81548160ff0219169083600381111561146657fe5b0217905550611495565b6001600460146101000a81548160ff0219169083600381111561148f57fe5b02179055505b50565b60006003808111156114a657fe5b600460149054906101000a900460ff1660038111156114c157fe5b14905090565b600b5481565b6000600854905090565b60004290509056fe4e6f20636f6e747269627574696f6e73206166746572206120646561646c696e6543616e6e6f742066696e6973682063616d706169676e206265666f7265206120646561646c696e65a265627a7a72315820b17bcde02a08092704a31294e6d2d0c90eeff191e447d1e203dfa4573743b97f64736f6c63430005100032a265627a7a72315820c92c22ec6d29e29dbe40ba94446b73799d17678c455409f21e58d607cd96171a64736f6c63430005100032",
  "source": "pragma solidity ^0.5.0;\nimport \"./CrowdFundingWithDeadline.sol\";\nimport \"./Utils.sol\";\ncontract Campaign {\n    enum State { Ongoing, Failed, Succeeded, PaidOut }\n\n     event CampaignStarted(\n         address contractAddress,\n        address payable projectStarter,\n        string  contractName,\n        uint targetAmountEth,\n        uint durationInMin\n    );\n    string public name;\n    uint public targetAmount;\n    uint public fundingDeadline;\n    address payable public beneficiary;\n    address public owner;\n    State public state;\n    CrowdFundingWithDeadline[] campaign;\nfunction createCampaign(string calldata contractName,uint targetAmountEth,uint durationInMin,\naddress  payable beneficiaryAddress) external payable{\n        name = contractName;\n        targetAmount = Utils.etherToWei(targetAmountEth);\n        fundingDeadline = now +\n            Utils.minutesToSeconds(durationInMin);\n        beneficiary = beneficiaryAddress;\n        owner = msg.sender;\n        state = State.Ongoing;\n        CrowdFundingWithDeadline newCampaign = new CrowdFundingWithDeadline(name, targetAmount,fundingDeadline , beneficiary);\n        campaign.push(newCampaign);\n        emit CampaignStarted(\n            owner,\n            beneficiary,\n            name,\n            targetAmount,\n            fundingDeadline\n        );\n}\nfunction returnAllCampaigns() external view returns(CrowdFundingWithDeadline[] memory){\n        return campaign;\n    }\n}",
  "sourcePath": "/Users/vetalpallavi21/BlockChain/CrowdFundDapp/contracts/Campaign.sol",
  "compiler": {
    "name": "solc",
    "version": "0.5.16+commit.9c3226ce.Emscripten.clang"
  },
  "schemaVersion": "3.1.0",
  "updatedAt": "2020-04-30T06:25:53.513Z",
  "networkType": "ethereum",
  "devdoc": {
    "methods": {}
  },
  "userdoc": {
    "methods": {}
  }
}