{
  "contractName": "Utils",
  "abi": [
    {
      "constant": true,
      "inputs": [
        {
          "internalType": "uint256",
          "name": "sumInEth",
          "type": "uint256"
        }
      ],
      "name": "etherToWei",
      "outputs": [
        {
          "internalType": "uint256",
          "name": "",
          "type": "uint256"
        }
      ],
      "payable": false,
      "stateMutability": "pure",
      "type": "function"
    },
    {
      "constant": true,
      "inputs": [
        {
          "internalType": "uint256",
          "name": "timeInMin",
          "type": "uint256"
        }
      ],
      "name": "minutesToSeconds",
      "outputs": [
        {
          "internalType": "uint256",
          "name": "",
          "type": "uint256"
        }
      ],
      "payable": false,
      "stateMutability": "pure",
      "type": "function"
    }
  ],
  "bytecode": "0x610116610026600b82828239805160001a60731461001957fe5b30600052607381538281f3fe7300000000000000000000000000000000000000003014608060405260043610603d5760003560e01c8063529b380f146042578063d8916bb9146081575b600080fd5b606b60048036036020811015605657600080fd5b810190808035906020019092919050505060c0565b6040518082815260200191505060405180910390f35b60aa60048036036020811015609557600080fd5b810190808035906020019092919050505060cd565b6040518082815260200191505060405180910390f35b6000603c82029050919050565b6000670de0b6b3a76400008202905091905056fea265627a7a723158200c6631dcdc79a46d51e2e56181f629088423897514c4229df3f83e3e8a0eecd464736f6c63430005100032",
  "source": "pragma solidity ^0.5.0;\n\nlibrary Utils {\n\n    function etherToWei(uint sumInEth) public pure returns(uint) {\n        return sumInEth * 1 ether;\n    }\n\n    function minutesToSeconds(uint timeInMin) public pure returns(uint) {\n        return timeInMin * 1 minutes;\n    }\n}",
  "sourcePath": "/Users/vetalpallavi21/BlockChain/CrowdFundDapp/contracts/Utils.sol",
  "compiler": {
    "name": "solc",
    "version": "0.5.16+commit.9c3226ce.Emscripten.clang"
  },
  "schemaVersion": "3.1.0",
  "updatedAt": "2020-04-30T06:25:51.345Z",
  "networkType": "ethereum",
  "devdoc": {
    "methods": {}
  },
  "userdoc": {
    "methods": {}
  }
}